{
  "_format": "hh-sol-artifact-1",
  "contractName": "Transfusion",
  "sourceName": "contracts/Transfusion.sol",
  "abi": [
    {
      "inputs": [],
      "stateMutability": "nonpayable",
      "type": "constructor"
    },
    {
      "anonymous": false,
      "inputs": [
        {
          "indexed": true,
          "internalType": "address",
          "name": "donor",
          "type": "address"
        },
        {
          "indexed": true,
          "internalType": "address",
          "name": "recipient",
          "type": "address"
        },
        {
          "indexed": true,
          "internalType": "string",
          "name": "bloodType",
          "type": "string"
        }
      ],
      "name": "Matched",
      "type": "event"
    },
    {
      "anonymous": false,
      "inputs": [
        {
          "indexed": true,
          "internalType": "uint256",
          "name": "id",
          "type": "uint256"
        },
        {
          "indexed": true,
          "internalType": "address",
          "name": "donor",
          "type": "address"
        }
      ],
      "name": "RegisteredDonor",
      "type": "event"
    },
    {
      "anonymous": false,
      "inputs": [
        {
          "indexed": true,
          "internalType": "uint256",
          "name": "id",
          "type": "uint256"
        },
        {
          "indexed": true,
          "internalType": "address",
          "name": "recipient",
          "type": "address"
        }
      ],
      "name": "RegisteredRecipient",
      "type": "event"
    },
    {
      "inputs": [
        {
          "internalType": "address",
          "name": "",
          "type": "address"
        }
      ],
      "name": "admins",
      "outputs": [
        {
          "internalType": "bool",
          "name": "",
          "type": "bool"
        }
      ],
      "stateMutability": "view",
      "type": "function"
    },
    {
      "inputs": [
        {
          "internalType": "address",
          "name": "_address",
          "type": "address"
        }
      ],
      "name": "checkAdmins",
      "outputs": [
        {
          "internalType": "bool",
          "name": "",
          "type": "bool"
        }
      ],
      "stateMutability": "view",
      "type": "function"
    },
    {
      "inputs": [],
      "name": "contractOwner",
      "outputs": [
        {
          "internalType": "address",
          "name": "",
          "type": "address"
        }
      ],
      "stateMutability": "view",
      "type": "function"
    },
    {
      "inputs": [
        {
          "internalType": "address",
          "name": "_donorAddress",
          "type": "address"
        }
      ],
      "name": "deregisterDonor",
      "outputs": [],
      "stateMutability": "nonpayable",
      "type": "function"
    },
    {
      "inputs": [
        {
          "internalType": "address",
          "name": "_recipientAddress",
          "type": "address"
        }
      ],
      "name": "deregisterRecipient",
      "outputs": [],
      "stateMutability": "nonpayable",
      "type": "function"
    },
    {
      "inputs": [
        {
          "internalType": "uint256",
          "name": "",
          "type": "uint256"
        }
      ],
      "name": "donorAddresses",
      "outputs": [
        {
          "internalType": "address",
          "name": "",
          "type": "address"
        }
      ],
      "stateMutability": "view",
      "type": "function"
    },
    {
      "inputs": [
        {
          "internalType": "uint256",
          "name": "",
          "type": "uint256"
        }
      ],
      "name": "donorsId",
      "outputs": [
        {
          "internalType": "uint256",
          "name": "",
          "type": "uint256"
        }
      ],
      "stateMutability": "view",
      "type": "function"
    },
    {
      "inputs": [],
      "name": "donorsNumber",
      "outputs": [
        {
          "internalType": "uint256",
          "name": "",
          "type": "uint256"
        }
      ],
      "stateMutability": "view",
      "type": "function"
    },
    {
      "inputs": [
        {
          "internalType": "address",
          "name": "_donorAddress",
          "type": "address"
        }
      ],
      "name": "getDonor",
      "outputs": [
        {
          "internalType": "uint256",
          "name": "id",
          "type": "uint256"
        },
        {
          "internalType": "string",
          "name": "name",
          "type": "string"
        },
        {
          "internalType": "string",
          "name": "bloodType",
          "type": "string"
        },
        {
          "internalType": "enum Transfusion.State",
          "name": "state",
          "type": "uint8"
        }
      ],
      "stateMutability": "view",
      "type": "function"
    },
    {
      "inputs": [],
      "name": "getDonorAddresses",
      "outputs": [
        {
          "internalType": "address[]",
          "name": "_donorAddresses",
          "type": "address[]"
        }
      ],
      "stateMutability": "view",
      "type": "function"
    },
    {
      "inputs": [
        {
          "internalType": "address",
          "name": "_donorAddress",
          "type": "address"
        }
      ],
      "name": "getDonorState",
      "outputs": [
        {
          "internalType": "enum Transfusion.State",
          "name": "state",
          "type": "uint8"
        }
      ],
      "stateMutability": "view",
      "type": "function"
    },
    {
      "inputs": [],
      "name": "getDonorsId",
      "outputs": [
        {
          "internalType": "uint256[]",
          "name": "_donorsId",
          "type": "uint256[]"
        }
      ],
      "stateMutability": "view",
      "type": "function"
    },
    {
      "inputs": [],
      "name": "getDonorsNumber",
      "outputs": [
        {
          "internalType": "uint256",
          "name": "_donorsNumber",
          "type": "uint256"
        }
      ],
      "stateMutability": "view",
      "type": "function"
    },
    {
      "inputs": [],
      "name": "getOwner",
      "outputs": [
        {
          "internalType": "address",
          "name": "",
          "type": "address"
        }
      ],
      "stateMutability": "view",
      "type": "function"
    },
    {
      "inputs": [
        {
          "internalType": "address",
          "name": "_recipientAddress",
          "type": "address"
        }
      ],
      "name": "getRecipient",
      "outputs": [
        {
          "internalType": "uint256",
          "name": "id",
          "type": "uint256"
        },
        {
          "internalType": "string",
          "name": "name",
          "type": "string"
        },
        {
          "internalType": "string",
          "name": "bloodType",
          "type": "string"
        },
        {
          "internalType": "enum Transfusion.State",
          "name": "state",
          "type": "uint8"
        }
      ],
      "stateMutability": "view",
      "type": "function"
    },
    {
      "inputs": [],
      "name": "getRecipientAddresses",
      "outputs": [
        {
          "internalType": "address[]",
          "name": "_RecipientAddresses",
          "type": "address[]"
        }
      ],
      "stateMutability": "view",
      "type": "function"
    },
    {
      "inputs": [],
      "name": "getRecipientId",
      "outputs": [
        {
          "internalType": "uint256[]",
          "name": "_recipientId",
          "type": "uint256[]"
        }
      ],
      "stateMutability": "view",
      "type": "function"
    },
    {
      "inputs": [
        {
          "internalType": "address",
          "name": "_recipientAddress",
          "type": "address"
        }
      ],
      "name": "getRecipientState",
      "outputs": [
        {
          "internalType": "enum Transfusion.State",
          "name": "state",
          "type": "uint8"
        }
      ],
      "stateMutability": "view",
      "type": "function"
    },
    {
      "inputs": [],
      "name": "getRecipientsNumber",
      "outputs": [
        {
          "internalType": "uint256",
          "name": "_recipientsNumber",
          "type": "uint256"
        }
      ],
      "stateMutability": "view",
      "type": "function"
    },
    {
      "inputs": [
        {
          "internalType": "uint256",
          "name": "",
          "type": "uint256"
        }
      ],
      "name": "recipientAddresses",
      "outputs": [
        {
          "internalType": "address",
          "name": "",
          "type": "address"
        }
      ],
      "stateMutability": "view",
      "type": "function"
    },
    {
      "inputs": [
        {
          "internalType": "uint256",
          "name": "",
          "type": "uint256"
        }
      ],
      "name": "recipientId",
      "outputs": [
        {
          "internalType": "uint256",
          "name": "",
          "type": "uint256"
        }
      ],
      "stateMutability": "view",
      "type": "function"
    },
    {
      "inputs": [],
      "name": "recipientsNumber",
      "outputs": [
        {
          "internalType": "uint256",
          "name": "",
          "type": "uint256"
        }
      ],
      "stateMutability": "view",
      "type": "function"
    },
    {
      "inputs": [
        {
          "internalType": "string",
          "name": "_name",
          "type": "string"
        },
        {
          "internalType": "string",
          "name": "_bloodType",
          "type": "string"
        }
      ],
      "name": "registerDonor",
      "outputs": [],
      "stateMutability": "nonpayable",
      "type": "function"
    },
    {
      "inputs": [
        {
          "internalType": "string",
          "name": "_name",
          "type": "string"
        },
        {
          "internalType": "string",
          "name": "_bloodType",
          "type": "string"
        }
      ],
      "name": "registerRecipient",
      "outputs": [],
      "stateMutability": "nonpayable",
      "type": "function"
    },
    {
      "inputs": [
        {
          "internalType": "address",
          "name": "newAdmin",
          "type": "address"
        }
      ],
      "name": "setAdmins",
      "outputs": [],
      "stateMutability": "nonpayable",
      "type": "function"
    }
  ],
  "bytecode": "0x608060405234801561001057600080fd5b5060018060003373ffffffffffffffffffffffffffffffffffffffff1673ffffffffffffffffffffffffffffffffffffffff16815260200190815260200160002060006101000a81548160ff021916908315150217905550336000806101000a81548173ffffffffffffffffffffffffffffffffffffffff021916908373ffffffffffffffffffffffffffffffffffffffff160217905550612f70806100b76000396000f3fe608060405234801561001057600080fd5b50600436106101735760003560e01c806351c87054116100de578063a2df1c8b11610097578063c42e127f11610071578063c42e127f1461048e578063c57d14f5146104aa578063ce606ee0146104c8578063e095e389146104e657610173565b8063a2df1c8b14610436578063a577589e14610454578063b0e51b591461047057610173565b806351c870541461034657806362812a3914610364578063893d20e8146103975780638d6806a1146103b55780638fbdd0cc146103d357806396c590431461040357610173565b80632b2aee5d116101305780632b2aee5d1461025e5780633b9d36081461028e5780633beb128f146102ac5780633d2cce5e146102dc578063429b62e5146102fa5780634df5be0a1461032a57610173565b806309582867146101785780630c4ffc88146101a85780630d272098146101d8578063218c14ae14610208578063219616a5146102245780632aece8f214610240575b600080fd5b610192600480360381019061018d9190612025565b610516565b60405161019f9190612061565b60405180910390f35b6101c260048036038101906101bd91906120da565b61053a565b6040516101cf9190612122565b60405180910390f35b6101f260048036038101906101ed91906120da565b610590565b6040516101ff91906121b4565b60405180910390f35b610222600480360381019061021d9190612315565b6105e9565b005b61023e600480360381019061023991906120da565b6108e3565b005b610248610a7b565b6040516102559190612061565b60405180910390f35b61027860048036038101906102739190612025565b610a85565b604051610285919061239c565b60405180910390f35b610296610ac4565b6040516102a39190612475565b60405180910390f35b6102c660048036038101906102c19190612025565b610b52565b6040516102d3919061239c565b60405180910390f35b6102e4610b91565b6040516102f19190612555565b60405180910390f35b610314600480360381019061030f91906120da565b610be9565b6040516103219190612122565b60405180910390f35b610344600480360381019061033f91906120da565b610c09565b005b61034e610cf1565b60405161035b9190612555565b60405180910390f35b61037e600480360381019061037991906120da565b610d49565b60405161038e94939291906125f6565b60405180910390f35b61039f6110d7565b6040516103ac919061239c565b60405180910390f35b6103bd611100565b6040516103ca9190612061565b60405180910390f35b6103ed60048036038101906103e891906120da565b61110a565b6040516103fa91906121b4565b60405180910390f35b61041d600480360381019061041891906120da565b611163565b60405161042d94939291906125f6565b60405180910390f35b61043e6114f1565b60405161044b9190612061565b60405180910390f35b61046e60048036038101906104699190612315565b6114f7565b005b6104786117f1565b6040516104859190612061565b60405180910390f35b6104a860048036038101906104a391906120da565b6117f7565b005b6104b261198f565b6040516104bf9190612475565b60405180910390f35b6104d0611a1d565b6040516104dd919061239c565b60405180910390f35b61050060048036038101906104fb9190612025565b611a41565b60405161050d9190612061565b60405180910390f35b6004818154811061052657600080fd5b906000526020600020016000915090505481565b6000600160008373ffffffffffffffffffffffffffffffffffffffff1673ffffffffffffffffffffffffffffffffffffffff16815260200190815260200160002060009054906101000a900460ff169050919050565b6000600360008373ffffffffffffffffffffffffffffffffffffffff1673ffffffffffffffffffffffffffffffffffffffff16815260200190815260200160002060040160009054906101000a900460ff169050919050565b600060038111156105fd576105fc61213d565b5b600360003373ffffffffffffffffffffffffffffffffffffffff1673ffffffffffffffffffffffffffffffffffffffff16815260200190815260200160002060040160009054906101000a900460ff16600381111561065f5761065e61213d565b5b1461069f576040517f08c379a000000000000000000000000000000000000000000000000000000000815260040161069690612695565b60405180910390fd5b6106a881611a65565b600960008154809291906106bb906126e4565b91905055506040518060a0016040528060095481526020013373ffffffffffffffffffffffffffffffffffffffff1681526020018381526020018281526020016001600381111561070f5761070e61213d565b5b815250600360003373ffffffffffffffffffffffffffffffffffffffff1673ffffffffffffffffffffffffffffffffffffffff1681526020019081526020016000206000820151816000015560208201518160010160006101000a81548173ffffffffffffffffffffffffffffffffffffffff021916908373ffffffffffffffffffffffffffffffffffffffff16021790555060408201518160020190816107b79190612938565b5060608201518160030190816107cd9190612938565b5060808201518160040160006101000a81548160ff021916908360038111156107f9576107f861213d565b5b0217905550905050600560095490806001815401808255809150506001900390600052602060002001600090919091909150556007339080600181540180825580915050600190039060005260206000200160009091909190916101000a81548173ffffffffffffffffffffffffffffffffffffffff021916908373ffffffffffffffffffffffffffffffffffffffff1602179055506108993382611afe565b3373ffffffffffffffffffffffffffffffffffffffff166009547f462c18368aa15e882ddac9b7f00a52c50fc1cb867182f0c4c0d4f9a1f49f9f4460405160405180910390a35050565b3373ffffffffffffffffffffffffffffffffffffffff168173ffffffffffffffffffffffffffffffffffffffff1614610951576040517f08c379a000000000000000000000000000000000000000000000000000000000815260040161094890612a7c565b60405180910390fd5b600160038111156109655761096461213d565b5b600260008373ffffffffffffffffffffffffffffffffffffffff1673ffffffffffffffffffffffffffffffffffffffff16815260200190815260200160002060040160009054906101000a900460ff1660038111156109c7576109c661213d565b5b14610a07576040517f08c379a00000000000000000000000000000000000000000000000000000000081526004016109fe90612b0e565b60405180910390fd5b6000600260008373ffffffffffffffffffffffffffffffffffffffff1673ffffffffffffffffffffffffffffffffffffffff168152602001908152602001600020905060028160040160006101000a81548160ff02191690836003811115610a7257610a7161213d565b5b02179055505050565b6000600854905090565b60068181548110610a9557600080fd5b906000526020600020016000915054906101000a900473ffffffffffffffffffffffffffffffffffffffff1681565b60606007805480602002602001604051908101604052809291908181526020018280548015610b4857602002820191906000526020600020905b8160009054906101000a900473ffffffffffffffffffffffffffffffffffffffff1673ffffffffffffffffffffffffffffffffffffffff1681526020019060010190808311610afe575b5050505050905090565b60078181548110610b6257600080fd5b906000526020600020016000915054906101000a900473ffffffffffffffffffffffffffffffffffffffff1681565b60606005805480602002602001604051908101604052809291908181526020018280548015610bdf57602002820191906000526020600020905b815481526020019060010190808311610bcb575b5050505050905090565b60016020528060005260406000206000915054906101000a900460ff1681565b60008054906101000a900473ffffffffffffffffffffffffffffffffffffffff1673ffffffffffffffffffffffffffffffffffffffff163373ffffffffffffffffffffffffffffffffffffffff1614610c97576040517f08c379a0000000000000000000000000000000000000000000000000000000008152600401610c8e90612b7a565b60405180910390fd5b60018060008373ffffffffffffffffffffffffffffffffffffffff1673ffffffffffffffffffffffffffffffffffffffff16815260200190815260200160002060006101000a81548160ff02191690831515021790555050565b60606004805480602002602001604051908101604052809291908181526020018280548015610d3f57602002820191906000526020600020905b815481526020019060010190808311610d2b575b5050505050905090565b6000606080600060011515600160003373ffffffffffffffffffffffffffffffffffffffff1673ffffffffffffffffffffffffffffffffffffffff16815260200190815260200160002060009054906101000a900460ff16151514610de3576040517f08c379a0000000000000000000000000000000000000000000000000000000008152600401610dda90612be6565b60405180910390fd5b60006003811115610df757610df661213d565b5b600360008773ffffffffffffffffffffffffffffffffffffffff1673ffffffffffffffffffffffffffffffffffffffff16815260200190815260200160002060040160009054906101000a900460ff166003811115610e5957610e5861213d565b5b03610e99576040517f08c379a0000000000000000000000000000000000000000000000000000000008152600401610e9090612c52565b60405180910390fd5b600360008673ffffffffffffffffffffffffffffffffffffffff1673ffffffffffffffffffffffffffffffffffffffff16815260200190815260200160002060000154600360008773ffffffffffffffffffffffffffffffffffffffff1673ffffffffffffffffffffffffffffffffffffffff168152602001908152602001600020600201600360008873ffffffffffffffffffffffffffffffffffffffff1673ffffffffffffffffffffffffffffffffffffffff168152602001908152602001600020600301600360008973ffffffffffffffffffffffffffffffffffffffff1673ffffffffffffffffffffffffffffffffffffffff16815260200190815260200160002060040160009054906101000a900460ff16828054610fbc9061275b565b80601f0160208091040260200160405190810160405280929190818152602001828054610fe89061275b565b80156110355780601f1061100a57610100808354040283529160200191611035565b820191906000526020600020905b81548152906001019060200180831161101857829003601f168201915b505050505092508180546110489061275b565b80601f01602080910402602001604051908101604052809291908181526020018280546110749061275b565b80156110c15780601f10611096576101008083540402835291602001916110c1565b820191906000526020600020905b8154815290600101906020018083116110a457829003601f168201915b5050505050915093509350935093509193509193565b60008060009054906101000a900473ffffffffffffffffffffffffffffffffffffffff16905090565b6000600954905090565b6000600260008373ffffffffffffffffffffffffffffffffffffffff1673ffffffffffffffffffffffffffffffffffffffff16815260200190815260200160002060040160009054906101000a900460ff169050919050565b6000606080600060011515600160003373ffffffffffffffffffffffffffffffffffffffff1673ffffffffffffffffffffffffffffffffffffffff16815260200190815260200160002060009054906101000a900460ff161515146111fd576040517f08c379a00000000000000000000000000000000000000000000000000000000081526004016111f490612be6565b60405180910390fd5b600060038111156112115761121061213d565b5b600260008773ffffffffffffffffffffffffffffffffffffffff1673ffffffffffffffffffffffffffffffffffffffff16815260200190815260200160002060040160009054906101000a900460ff1660038111156112735761127261213d565b5b036112b3576040517f08c379a00000000000000000000000000000000000000000000000000000000081526004016112aa90612cbe565b60405180910390fd5b600260008673ffffffffffffffffffffffffffffffffffffffff1673ffffffffffffffffffffffffffffffffffffffff16815260200190815260200160002060000154600260008773ffffffffffffffffffffffffffffffffffffffff1673ffffffffffffffffffffffffffffffffffffffff168152602001908152602001600020600201600260008873ffffffffffffffffffffffffffffffffffffffff1673ffffffffffffffffffffffffffffffffffffffff168152602001908152602001600020600301600260008973ffffffffffffffffffffffffffffffffffffffff1673ffffffffffffffffffffffffffffffffffffffff16815260200190815260200160002060040160009054906101000a900460ff168280546113d69061275b565b80601f01602080910402602001604051908101604052809291908181526020018280546114029061275b565b801561144f5780601f106114245761010080835404028352916020019161144f565b820191906000526020600020905b81548152906001019060200180831161143257829003601f168201915b505050505092508180546114629061275b565b80601f016020809104026020016040519081016040528092919081815260200182805461148e9061275b565b80156114db5780601f106114b0576101008083540402835291602001916114db565b820191906000526020600020905b8154815290600101906020018083116114be57829003601f168201915b5050505050915093509350935093509193509193565b60085481565b6000600381111561150b5761150a61213d565b5b600260003373ffffffffffffffffffffffffffffffffffffffff1673ffffffffffffffffffffffffffffffffffffffff16815260200190815260200160002060040160009054906101000a900460ff16600381111561156d5761156c61213d565b5b146115ad576040517f08c379a00000000000000000000000000000000000000000000000000000000081526004016115a490612d2a565b60405180910390fd5b6115b681611a65565b600860008154809291906115c9906126e4565b91905055506040518060a0016040528060085481526020013373ffffffffffffffffffffffffffffffffffffffff1681526020018381526020018281526020016001600381111561161d5761161c61213d565b5b815250600260003373ffffffffffffffffffffffffffffffffffffffff1673ffffffffffffffffffffffffffffffffffffffff1681526020019081526020016000206000820151816000015560208201518160010160006101000a81548173ffffffffffffffffffffffffffffffffffffffff021916908373ffffffffffffffffffffffffffffffffffffffff16021790555060408201518160020190816116c59190612938565b5060608201518160030190816116db9190612938565b5060808201518160040160006101000a81548160ff021916908360038111156117075761170661213d565b5b0217905550905050600460085490806001815401808255809150506001900390600052602060002001600090919091909150556006339080600181540180825580915050600190039060005260206000200160009091909190916101000a81548173ffffffffffffffffffffffffffffffffffffffff021916908373ffffffffffffffffffffffffffffffffffffffff1602179055506117a73382611cd3565b3373ffffffffffffffffffffffffffffffffffffffff166008547f185558c98d385f7f8ad95d297f1518e3d205d4626bd1bc40c08976b76938ace560405160405180910390a35050565b60095481565b3373ffffffffffffffffffffffffffffffffffffffff168173ffffffffffffffffffffffffffffffffffffffff1614611865576040517f08c379a000000000000000000000000000000000000000000000000000000000815260040161185c90612a7c565b60405180910390fd5b600160038111156118795761187861213d565b5b600360008373ffffffffffffffffffffffffffffffffffffffff1673ffffffffffffffffffffffffffffffffffffffff16815260200190815260200160002060040160009054906101000a900460ff1660038111156118db576118da61213d565b5b1461191b576040517f08c379a000000000000000000000000000000000000000000000000000000000815260040161191290612dbc565b60405180910390fd5b6000600360008373ffffffffffffffffffffffffffffffffffffffff1673ffffffffffffffffffffffffffffffffffffffff168152602001908152602001600020905060028160040160006101000a81548160ff021916908360038111156119865761198561213d565b5b02179055505050565b60606006805480602002602001604051908101604052809291908181526020018280548015611a1357602002820191906000526020600020905b8160009054906101000a900473ffffffffffffffffffffffffffffffffffffffff1673ffffffffffffffffffffffffffffffffffffffff16815260200190600101908083116119c9575b5050505050905090565b60008054906101000a900473ffffffffffffffffffffffffffffffffffffffff1681565b60058181548110611a5157600080fd5b906000526020600020016000915090505481565b611afb81604051602401611a799190612ddc565b6040516020818303038152906040527f41304fac000000000000000000000000000000000000000000000000000000007bffffffffffffffffffffffffffffffffffffffffffffffffffffffff19166020820180517bffffffffffffffffffffffffffffffffffffffffffffffffffffffff8381831617835250505050611e70565b50565b60005b600680549050811015611ccd57600060068281548110611b2457611b23612dfe565b5b9060005260206000200160009054906101000a900473ffffffffffffffffffffffffffffffffffffffff1690508373ffffffffffffffffffffffffffffffffffffffff168173ffffffffffffffffffffffffffffffffffffffff1603611b8a5750611cba565b8373ffffffffffffffffffffffffffffffffffffffff168173ffffffffffffffffffffffffffffffffffffffff1614158015611c39575060016003811115611bd557611bd461213d565b5b600260008373ffffffffffffffffffffffffffffffffffffffff1673ffffffffffffffffffffffffffffffffffffffff16815260200190815260200160002060040160009054906101000a900460ff166003811115611c3757611c3661213d565b5b145b8015611ca157508280519060200120600260008373ffffffffffffffffffffffffffffffffffffffff1673ffffffffffffffffffffffffffffffffffffffff168152602001908152602001600020600301604051611c979190612ed0565b6040518091039020145b15611cb857611cb1818585611e91565b5050611ccf565b505b8080611cc5906126e4565b915050611b01565b505b5050565b60005b600780549050811015611e6a57600060078281548110611cf957611cf8612dfe565b5b9060005260206000200160009054906101000a900473ffffffffffffffffffffffffffffffffffffffff1690508373ffffffffffffffffffffffffffffffffffffffff168173ffffffffffffffffffffffffffffffffffffffff1603611d5f5750611e57565b60016003811115611d7357611d7261213d565b5b600360008373ffffffffffffffffffffffffffffffffffffffff1673ffffffffffffffffffffffffffffffffffffffff16815260200190815260200160002060040160009054906101000a900460ff166003811115611dd557611dd461213d565b5b148015611e3e57508280519060200120600360008373ffffffffffffffffffffffffffffffffffffffff1673ffffffffffffffffffffffffffffffffffffffff168152602001908152602001600020600301604051611e349190612ed0565b6040518091039020145b15611e5557611e4e848285611e91565b5050611e6c565b505b8080611e62906126e4565b915050611cd6565b505b5050565b60006a636f6e736f6c652e6c6f679050600080835160208501845afa505050565b6003600260008573ffffffffffffffffffffffffffffffffffffffff1673ffffffffffffffffffffffffffffffffffffffff16815260200190815260200160002060040160006101000a81548160ff02191690836003811115611ef757611ef661213d565b5b021790555060038060008473ffffffffffffffffffffffffffffffffffffffff1673ffffffffffffffffffffffffffffffffffffffff16815260200190815260200160002060040160006101000a81548160ff02191690836003811115611f6157611f6061213d565b5b021790555080604051611f749190612f23565b60405180910390208273ffffffffffffffffffffffffffffffffffffffff168473ffffffffffffffffffffffffffffffffffffffff167f420115249e73025572bf02e15e1e2503a97f8b49cd3a732fc454dfec85f1e00560405160405180910390a4505050565b6000604051905090565b600080fd5b600080fd5b6000819050919050565b61200281611fef565b811461200d57600080fd5b50565b60008135905061201f81611ff9565b92915050565b60006020828403121561203b5761203a611fe5565b5b600061204984828501612010565b91505092915050565b61205b81611fef565b82525050565b60006020820190506120766000830184612052565b92915050565b600073ffffffffffffffffffffffffffffffffffffffff82169050919050565b60006120a78261207c565b9050919050565b6120b78161209c565b81146120c257600080fd5b50565b6000813590506120d4816120ae565b92915050565b6000602082840312156120f0576120ef611fe5565b5b60006120fe848285016120c5565b91505092915050565b60008115159050919050565b61211c81612107565b82525050565b60006020820190506121376000830184612113565b92915050565b7f4e487b7100000000000000000000000000000000000000000000000000000000600052602160045260246000fd5b6004811061217d5761217c61213d565b5b50565b600081905061218e8261216c565b919050565b600061219e82612180565b9050919050565b6121ae81612193565b82525050565b60006020820190506121c960008301846121a5565b92915050565b600080fd5b600080fd5b6000601f19601f8301169050919050565b7f4e487b7100000000000000000000000000000000000000000000000000000000600052604160045260246000fd5b612222826121d9565b810181811067ffffffffffffffff82111715612241576122406121ea565b5b80604052505050565b6000612254611fdb565b90506122608282612219565b919050565b600067ffffffffffffffff8211156122805761227f6121ea565b5b612289826121d9565b9050602081019050919050565b82818337600083830152505050565b60006122b86122b384612265565b61224a565b9050828152602081018484840111156122d4576122d36121d4565b5b6122df848285612296565b509392505050565b600082601f8301126122fc576122fb6121cf565b5b813561230c8482602086016122a5565b91505092915050565b6000806040838503121561232c5761232b611fe5565b5b600083013567ffffffffffffffff81111561234a57612349611fea565b5b612356858286016122e7565b925050602083013567ffffffffffffffff81111561237757612376611fea565b5b612383858286016122e7565b9150509250929050565b6123968161209c565b82525050565b60006020820190506123b1600083018461238d565b92915050565b600081519050919050565b600082825260208201905092915050565b6000819050602082019050919050565b6123ec8161209c565b82525050565b60006123fe83836123e3565b60208301905092915050565b6000602082019050919050565b6000612422826123b7565b61242c81856123c2565b9350612437836123d3565b8060005b8381101561246857815161244f88826123f2565b975061245a8361240a565b92505060018101905061243b565b5085935050505092915050565b6000602082019050818103600083015261248f8184612417565b905092915050565b600081519050919050565b600082825260208201905092915050565b6000819050602082019050919050565b6124cc81611fef565b82525050565b60006124de83836124c3565b60208301905092915050565b6000602082019050919050565b600061250282612497565b61250c81856124a2565b9350612517836124b3565b8060005b8381101561254857815161252f88826124d2565b975061253a836124ea565b92505060018101905061251b565b5085935050505092915050565b6000602082019050818103600083015261256f81846124f7565b905092915050565b600081519050919050565b600082825260208201905092915050565b60005b838110156125b1578082015181840152602081019050612596565b60008484015250505050565b60006125c882612577565b6125d28185612582565b93506125e2818560208601612593565b6125eb816121d9565b840191505092915050565b600060808201905061260b6000830187612052565b818103602083015261261d81866125bd565b9050818103604083015261263181856125bd565b905061264060608301846121a5565b95945050505050565b7f526563697069656e743a20616c72656164792072656769737465726564000000600082015250565b600061267f601d83612582565b915061268a82612649565b602082019050919050565b600060208201905081810360008301526126ae81612672565b9050919050565b7f4e487b7100000000000000000000000000000000000000000000000000000000600052601160045260246000fd5b60006126ef82611fef565b91507fffffffffffffffffffffffffffffffffffffffffffffffffffffffffffffffff8203612721576127206126b5565b5b600182019050919050565b7f4e487b7100000000000000000000000000000000000000000000000000000000600052602260045260246000fd5b6000600282049050600182168061277357607f821691505b6020821081036127865761278561272c565b5b50919050565b60008190508160005260206000209050919050565b60006020601f8301049050919050565b600082821b905092915050565b6000600883026127ee7fffffffffffffffffffffffffffffffffffffffffffffffffffffffffffffffff826127b1565b6127f886836127b1565b95508019841693508086168417925050509392505050565b6000819050919050565b600061283561283061282b84611fef565b612810565b611fef565b9050919050565b6000819050919050565b61284f8361281a565b61286361285b8261283c565b8484546127be565b825550505050565b600090565b61287861286b565b612883818484612846565b505050565b5b818110156128a75761289c600082612870565b600181019050612889565b5050565b601f8211156128ec576128bd8161278c565b6128c6846127a1565b810160208510156128d5578190505b6128e96128e1856127a1565b830182612888565b50505b505050565b600082821c905092915050565b600061290f600019846008026128f1565b1980831691505092915050565b600061292883836128fe565b9150826002028217905092915050565b61294182612577565b67ffffffffffffffff81111561295a576129596121ea565b5b612964825461275b565b61296f8282856128ab565b600060209050601f8311600181146129a25760008415612990578287015190505b61299a858261291c565b865550612a02565b601f1984166129b08661278c565b60005b828110156129d8578489015182556001820191506020850194506020810190506129b3565b868310156129f557848901516129f1601f8916826128fe565b8355505b6001600288020188555050505b505050505050565b7f63616e206e6f7420646572656769737465722066726f6d20616e6f746865722060008201527f6164647265737300000000000000000000000000000000000000000000000000602082015250565b6000612a66602783612582565b9150612a7182612a0a565b604082019050919050565b60006020820190508181036000830152612a9581612a59565b9050919050565b7f446f6e6f723a2063616e27742062652064656c657465642c206e6f742072656760008201527f697374657264206f7220616c7265616479206d61746368656400000000000000602082015250565b6000612af8603983612582565b9150612b0382612a9c565b604082019050919050565b60006020820190508181036000830152612b2781612aeb565b9050919050565b7f4f6e6c79206f776e65722063616e2063616c6c00000000000000000000000000600082015250565b6000612b64601383612582565b9150612b6f82612b2e565b602082019050919050565b60006020820190508181036000830152612b9381612b57565b9050919050565b7f4f6e6c792061646d696e2063616e2063616c6c00000000000000000000000000600082015250565b6000612bd0601383612582565b9150612bdb82612b9a565b602082019050919050565b60006020820190508181036000830152612bff81612bc3565b9050919050565b7f526563697069656e743a206e6f74207265676973746572656400000000000000600082015250565b6000612c3c601983612582565b9150612c4782612c06565b602082019050919050565b60006020820190508181036000830152612c6b81612c2f565b9050919050565b7f446f6e6f723a206e6f7420726567697374657265640000000000000000000000600082015250565b6000612ca8601583612582565b9150612cb382612c72565b602082019050919050565b60006020820190508181036000830152612cd781612c9b565b9050919050565b7f446f6e6f723a20616c7265616479207265676973746572656400000000000000600082015250565b6000612d14601983612582565b9150612d1f82612cde565b602082019050919050565b60006020820190508181036000830152612d4381612d07565b9050919050565b7f526563697069656e743a2063616e27742062652064656c657465642c206e6f7460008201527f20726567697374657264206f7220616c7265616479206d617463686564000000602082015250565b6000612da6603d83612582565b9150612db182612d4a565b604082019050919050565b60006020820190508181036000830152612dd581612d99565b9050919050565b60006020820190508181036000830152612df681846125bd565b905092915050565b7f4e487b7100000000000000000000000000000000000000000000000000000000600052603260045260246000fd5b600081905092915050565b60008190508160005260206000209050919050565b60008154612e5a8161275b565b612e648186612e2d565b94506001821660008114612e7f5760018114612e9457612ec7565b60ff1983168652811515820286019350612ec7565b612e9d85612e38565b60005b83811015612ebf57815481890152600182019150602081019050612ea0565b838801955050505b50505092915050565b6000612edc8284612e4d565b915081905092915050565b600081905092915050565b6000612efd82612577565b612f078185612ee7565b9350612f17818560208601612593565b80840191505092915050565b6000612f2f8284612ef2565b91508190509291505056fea2646970667358221220a7fc1f86edf05aa3d80ce870eb02d31bacbd0e710c239539af8f62c57ad3d82364736f6c63430008120033",
  "linkReferences": {},
  "deployedLinkReferences": {}
}