{
  "_format": "hh-sol-artifact-1",
  "contractName": "Transfusion",
  "sourceName": "contracts/Transfusion.sol",
  "abi": [
    {
      "inputs": [],
      "stateMutability": "nonpayable",
      "type": "constructor"
    },
    {
      "anonymous": false,
      "inputs": [
        {
          "indexed": true,
          "internalType": "address",
          "name": "donor",
          "type": "address"
        },
        {
          "indexed": true,
          "internalType": "address",
          "name": "recipient",
          "type": "address"
        },
        {
          "indexed": true,
          "internalType": "string",
          "name": "bloodType",
          "type": "string"
        }
      ],
      "name": "Matched",
      "type": "event"
    },
    {
      "anonymous": false,
      "inputs": [
        {
          "indexed": true,
          "internalType": "uint256",
          "name": "id",
          "type": "uint256"
        },
        {
          "indexed": true,
          "internalType": "address",
          "name": "donor",
          "type": "address"
        }
      ],
      "name": "RegisteredDonor",
      "type": "event"
    },
    {
      "anonymous": false,
      "inputs": [
        {
          "indexed": true,
          "internalType": "uint256",
          "name": "id",
          "type": "uint256"
        },
        {
          "indexed": true,
          "internalType": "address",
          "name": "recipient",
          "type": "address"
        }
      ],
      "name": "RegisteredRecipient",
      "type": "event"
    },
    {
      "inputs": [
        {
          "internalType": "address",
          "name": "",
          "type": "address"
        }
      ],
      "name": "admins",
      "outputs": [
        {
          "internalType": "bool",
          "name": "",
          "type": "bool"
        }
      ],
      "stateMutability": "view",
      "type": "function"
    },
    {
      "inputs": [
        {
          "internalType": "address",
          "name": "_address",
          "type": "address"
        }
      ],
      "name": "checkAdmins",
      "outputs": [
        {
          "internalType": "bool",
          "name": "",
          "type": "bool"
        }
      ],
      "stateMutability": "view",
      "type": "function"
    },
    {
      "inputs": [],
      "name": "contractOwner",
      "outputs": [
        {
          "internalType": "address",
          "name": "",
          "type": "address"
        }
      ],
      "stateMutability": "view",
      "type": "function"
    },
    {
      "inputs": [
        {
          "internalType": "address",
          "name": "_donorAddress",
          "type": "address"
        }
      ],
      "name": "deregisterDonor",
      "outputs": [],
      "stateMutability": "nonpayable",
      "type": "function"
    },
    {
      "inputs": [
        {
          "internalType": "address",
          "name": "_recipientAddress",
          "type": "address"
        }
      ],
      "name": "deregisterRecipient",
      "outputs": [],
      "stateMutability": "nonpayable",
      "type": "function"
    },
    {
      "inputs": [
        {
          "internalType": "uint256",
          "name": "",
          "type": "uint256"
        }
      ],
      "name": "donorAddresses",
      "outputs": [
        {
          "internalType": "address",
          "name": "",
          "type": "address"
        }
      ],
      "stateMutability": "view",
      "type": "function"
    },
    {
      "inputs": [
        {
          "internalType": "uint256",
          "name": "",
          "type": "uint256"
        }
      ],
      "name": "donorsId",
      "outputs": [
        {
          "internalType": "uint256",
          "name": "",
          "type": "uint256"
        }
      ],
      "stateMutability": "view",
      "type": "function"
    },
    {
      "inputs": [],
      "name": "donorsNumber",
      "outputs": [
        {
          "internalType": "uint256",
          "name": "",
          "type": "uint256"
        }
      ],
      "stateMutability": "view",
      "type": "function"
    },
    {
      "inputs": [
        {
          "internalType": "address",
          "name": "_donorAddress",
          "type": "address"
        }
      ],
      "name": "getDonor",
      "outputs": [
        {
          "internalType": "uint256",
          "name": "id",
          "type": "uint256"
        },
        {
          "internalType": "string",
          "name": "name",
          "type": "string"
        },
        {
          "internalType": "string",
          "name": "bloodType",
          "type": "string"
        },
        {
          "internalType": "enum Transfusion.State",
          "name": "state",
          "type": "uint8"
        }
      ],
      "stateMutability": "view",
      "type": "function"
    },
    {
      "inputs": [],
      "name": "getDonorAddresses",
      "outputs": [
        {
          "internalType": "address[]",
          "name": "_donorAddresses",
          "type": "address[]"
        }
      ],
      "stateMutability": "view",
      "type": "function"
    },
    {
      "inputs": [
        {
          "internalType": "address",
          "name": "_donorAddress",
          "type": "address"
        }
      ],
      "name": "getDonorState",
      "outputs": [
        {
          "internalType": "enum Transfusion.State",
          "name": "state",
          "type": "uint8"
        }
      ],
      "stateMutability": "view",
      "type": "function"
    },
    {
      "inputs": [],
      "name": "getDonorsId",
      "outputs": [
        {
          "internalType": "uint256[]",
          "name": "_donorsId",
          "type": "uint256[]"
        }
      ],
      "stateMutability": "view",
      "type": "function"
    },
    {
      "inputs": [],
      "name": "getDonorsNumber",
      "outputs": [
        {
          "internalType": "uint256",
          "name": "_donorsNumber",
          "type": "uint256"
        }
      ],
      "stateMutability": "view",
      "type": "function"
    },
    {
      "inputs": [],
      "name": "getOwner",
      "outputs": [
        {
          "internalType": "address",
          "name": "",
          "type": "address"
        }
      ],
      "stateMutability": "view",
      "type": "function"
    },
    {
      "inputs": [
        {
          "internalType": "address",
          "name": "_recipientAddress",
          "type": "address"
        }
      ],
      "name": "getRecipient",
      "outputs": [
        {
          "internalType": "uint256",
          "name": "id",
          "type": "uint256"
        },
        {
          "internalType": "string",
          "name": "name",
          "type": "string"
        },
        {
          "internalType": "string",
          "name": "bloodType",
          "type": "string"
        },
        {
          "internalType": "enum Transfusion.State",
          "name": "state",
          "type": "uint8"
        }
      ],
      "stateMutability": "view",
      "type": "function"
    },
    {
      "inputs": [],
      "name": "getRecipientAddresses",
      "outputs": [
        {
          "internalType": "address[]",
          "name": "_RecipientAddresses",
          "type": "address[]"
        }
      ],
      "stateMutability": "view",
      "type": "function"
    },
    {
      "inputs": [],
      "name": "getRecipientId",
      "outputs": [
        {
          "internalType": "uint256[]",
          "name": "_recipientId",
          "type": "uint256[]"
        }
      ],
      "stateMutability": "view",
      "type": "function"
    },
    {
      "inputs": [
        {
          "internalType": "address",
          "name": "_recipientAddress",
          "type": "address"
        }
      ],
      "name": "getRecipientState",
      "outputs": [
        {
          "internalType": "enum Transfusion.State",
          "name": "state",
          "type": "uint8"
        }
      ],
      "stateMutability": "view",
      "type": "function"
    },
    {
      "inputs": [],
      "name": "getRecipientsNumber",
      "outputs": [
        {
          "internalType": "uint256",
          "name": "_recipientsNumber",
          "type": "uint256"
        }
      ],
      "stateMutability": "view",
      "type": "function"
    },
    {
      "inputs": [
        {
          "internalType": "uint256",
          "name": "",
          "type": "uint256"
        }
      ],
      "name": "recipientAddresses",
      "outputs": [
        {
          "internalType": "address",
          "name": "",
          "type": "address"
        }
      ],
      "stateMutability": "view",
      "type": "function"
    },
    {
      "inputs": [
        {
          "internalType": "uint256",
          "name": "",
          "type": "uint256"
        }
      ],
      "name": "recipientId",
      "outputs": [
        {
          "internalType": "uint256",
          "name": "",
          "type": "uint256"
        }
      ],
      "stateMutability": "view",
      "type": "function"
    },
    {
      "inputs": [],
      "name": "recipientsNumber",
      "outputs": [
        {
          "internalType": "uint256",
          "name": "",
          "type": "uint256"
        }
      ],
      "stateMutability": "view",
      "type": "function"
    },
    {
      "inputs": [
        {
          "internalType": "string",
          "name": "_name",
          "type": "string"
        },
        {
          "internalType": "string",
          "name": "_bloodType",
          "type": "string"
        }
      ],
      "name": "registerDonor",
      "outputs": [],
      "stateMutability": "nonpayable",
      "type": "function"
    },
    {
      "inputs": [
        {
          "internalType": "string",
          "name": "_name",
          "type": "string"
        },
        {
          "internalType": "string",
          "name": "_bloodType",
          "type": "string"
        }
      ],
      "name": "registerRecipient",
      "outputs": [],
      "stateMutability": "nonpayable",
      "type": "function"
    },
    {
      "inputs": [
        {
          "internalType": "address",
          "name": "newAdmin",
          "type": "address"
        }
      ],
      "name": "setAdmins",
      "outputs": [],
      "stateMutability": "nonpayable",
      "type": "function"
    }
  ],
  "bytecode": "0x608060405234801561001057600080fd5b5060018060003373ffffffffffffffffffffffffffffffffffffffff1673ffffffffffffffffffffffffffffffffffffffff16815260200190815260200160002060006101000a81548160ff021916908315150217905550336000806101000a81548173ffffffffffffffffffffffffffffffffffffffff021916908373ffffffffffffffffffffffffffffffffffffffff160217905550612e82806100b76000396000f3fe608060405234801561001057600080fd5b50600436106101735760003560e01c806351c87054116100de578063a2df1c8b11610097578063c42e127f11610071578063c42e127f1461048e578063c57d14f5146104aa578063ce606ee0146104c8578063e095e389146104e657610173565b8063a2df1c8b14610436578063a577589e14610454578063b0e51b591461047057610173565b806351c870541461034657806362812a3914610364578063893d20e8146103975780638d6806a1146103b55780638fbdd0cc146103d357806396c590431461040357610173565b80632b2aee5d116101305780632b2aee5d1461025e5780633b9d36081461028e5780633beb128f146102ac5780633d2cce5e146102dc578063429b62e5146102fa5780634df5be0a1461032a57610173565b806309582867146101785780630c4ffc88146101a85780630d272098146101d8578063218c14ae14610208578063219616a5146102245780632aece8f214610240575b600080fd5b610192600480360381019061018d9190611f59565b610516565b60405161019f9190611f95565b60405180910390f35b6101c260048036038101906101bd919061200e565b61053a565b6040516101cf9190612056565b60405180910390f35b6101f260048036038101906101ed919061200e565b610590565b6040516101ff91906120e8565b60405180910390f35b610222600480360381019061021d9190612249565b6105e9565b005b61023e6004803603810190610239919061200e565b6108da565b005b610248610a72565b6040516102559190611f95565b60405180910390f35b61027860048036038101906102739190611f59565b610a7c565b60405161028591906122d0565b60405180910390f35b610296610abb565b6040516102a391906123a9565b60405180910390f35b6102c660048036038101906102c19190611f59565b610b49565b6040516102d391906122d0565b60405180910390f35b6102e4610b88565b6040516102f19190612489565b60405180910390f35b610314600480360381019061030f919061200e565b610be0565b6040516103219190612056565b60405180910390f35b610344600480360381019061033f919061200e565b610c00565b005b61034e610ce8565b60405161035b9190612489565b60405180910390f35b61037e6004803603810190610379919061200e565b610d40565b60405161038e949392919061252a565b60405180910390f35b61039f6110ce565b6040516103ac91906122d0565b60405180910390f35b6103bd6110f7565b6040516103ca9190611f95565b60405180910390f35b6103ed60048036038101906103e8919061200e565b611101565b6040516103fa91906120e8565b60405180910390f35b61041d6004803603810190610418919061200e565b61115a565b60405161042d949392919061252a565b60405180910390f35b61043e6114e8565b60405161044b9190611f95565b60405180910390f35b61046e60048036038101906104699190612249565b6114ee565b005b6104786117df565b6040516104859190611f95565b60405180910390f35b6104a860048036038101906104a3919061200e565b6117e5565b005b6104b261197d565b6040516104bf91906123a9565b60405180910390f35b6104d0611a0b565b6040516104dd91906122d0565b60405180910390f35b61050060048036038101906104fb9190611f59565b611a2f565b60405161050d9190611f95565b60405180910390f35b6004818154811061052657600080fd5b906000526020600020016000915090505481565b6000600160008373ffffffffffffffffffffffffffffffffffffffff1673ffffffffffffffffffffffffffffffffffffffff16815260200190815260200160002060009054906101000a900460ff169050919050565b6000600360008373ffffffffffffffffffffffffffffffffffffffff1673ffffffffffffffffffffffffffffffffffffffff16815260200190815260200160002060040160009054906101000a900460ff169050919050565b600060038111156105fd576105fc612071565b5b600360003373ffffffffffffffffffffffffffffffffffffffff1673ffffffffffffffffffffffffffffffffffffffff16815260200190815260200160002060040160009054906101000a900460ff16600381111561065f5761065e612071565b5b1461069f576040517f08c379a0000000000000000000000000000000000000000000000000000000008152600401610696906125c9565b60405180910390fd5b600960008154809291906106b290612618565b91905055506040518060a0016040528060095481526020013373ffffffffffffffffffffffffffffffffffffffff1681526020018381526020018281526020016001600381111561070657610705612071565b5b815250600360003373ffffffffffffffffffffffffffffffffffffffff1673ffffffffffffffffffffffffffffffffffffffff1681526020019081526020016000206000820151816000015560208201518160010160006101000a81548173ffffffffffffffffffffffffffffffffffffffff021916908373ffffffffffffffffffffffffffffffffffffffff16021790555060408201518160020190816107ae919061286c565b5060608201518160030190816107c4919061286c565b5060808201518160040160006101000a81548160ff021916908360038111156107f0576107ef612071565b5b0217905550905050600560095490806001815401808255809150506001900390600052602060002001600090919091909150556007339080600181540180825580915050600190039060005260206000200160009091909190916101000a81548173ffffffffffffffffffffffffffffffffffffffff021916908373ffffffffffffffffffffffffffffffffffffffff1602179055506108903382611a53565b3373ffffffffffffffffffffffffffffffffffffffff166009547f462c18368aa15e882ddac9b7f00a52c50fc1cb867182f0c4c0d4f9a1f49f9f4460405160405180910390a35050565b3373ffffffffffffffffffffffffffffffffffffffff168173ffffffffffffffffffffffffffffffffffffffff1614610948576040517f08c379a000000000000000000000000000000000000000000000000000000000815260040161093f906129b0565b60405180910390fd5b6001600381111561095c5761095b612071565b5b600260008373ffffffffffffffffffffffffffffffffffffffff1673ffffffffffffffffffffffffffffffffffffffff16815260200190815260200160002060040160009054906101000a900460ff1660038111156109be576109bd612071565b5b146109fe576040517f08c379a00000000000000000000000000000000000000000000000000000000081526004016109f590612a42565b60405180910390fd5b6000600260008373ffffffffffffffffffffffffffffffffffffffff1673ffffffffffffffffffffffffffffffffffffffff168152602001908152602001600020905060028160040160006101000a81548160ff02191690836003811115610a6957610a68612071565b5b02179055505050565b6000600854905090565b60068181548110610a8c57600080fd5b906000526020600020016000915054906101000a900473ffffffffffffffffffffffffffffffffffffffff1681565b60606007805480602002602001604051908101604052809291908181526020018280548015610b3f57602002820191906000526020600020905b8160009054906101000a900473ffffffffffffffffffffffffffffffffffffffff1673ffffffffffffffffffffffffffffffffffffffff1681526020019060010190808311610af5575b5050505050905090565b60078181548110610b5957600080fd5b906000526020600020016000915054906101000a900473ffffffffffffffffffffffffffffffffffffffff1681565b60606005805480602002602001604051908101604052809291908181526020018280548015610bd657602002820191906000526020600020905b815481526020019060010190808311610bc2575b5050505050905090565b60016020528060005260406000206000915054906101000a900460ff1681565b60008054906101000a900473ffffffffffffffffffffffffffffffffffffffff1673ffffffffffffffffffffffffffffffffffffffff163373ffffffffffffffffffffffffffffffffffffffff1614610c8e576040517f08c379a0000000000000000000000000000000000000000000000000000000008152600401610c8590612aae565b60405180910390fd5b60018060008373ffffffffffffffffffffffffffffffffffffffff1673ffffffffffffffffffffffffffffffffffffffff16815260200190815260200160002060006101000a81548160ff02191690831515021790555050565b60606004805480602002602001604051908101604052809291908181526020018280548015610d3657602002820191906000526020600020905b815481526020019060010190808311610d22575b5050505050905090565b6000606080600060011515600160003373ffffffffffffffffffffffffffffffffffffffff1673ffffffffffffffffffffffffffffffffffffffff16815260200190815260200160002060009054906101000a900460ff16151514610dda576040517f08c379a0000000000000000000000000000000000000000000000000000000008152600401610dd190612b1a565b60405180910390fd5b60006003811115610dee57610ded612071565b5b600360008773ffffffffffffffffffffffffffffffffffffffff1673ffffffffffffffffffffffffffffffffffffffff16815260200190815260200160002060040160009054906101000a900460ff166003811115610e5057610e4f612071565b5b03610e90576040517f08c379a0000000000000000000000000000000000000000000000000000000008152600401610e8790612b86565b60405180910390fd5b600360008673ffffffffffffffffffffffffffffffffffffffff1673ffffffffffffffffffffffffffffffffffffffff16815260200190815260200160002060000154600360008773ffffffffffffffffffffffffffffffffffffffff1673ffffffffffffffffffffffffffffffffffffffff168152602001908152602001600020600201600360008873ffffffffffffffffffffffffffffffffffffffff1673ffffffffffffffffffffffffffffffffffffffff168152602001908152602001600020600301600360008973ffffffffffffffffffffffffffffffffffffffff1673ffffffffffffffffffffffffffffffffffffffff16815260200190815260200160002060040160009054906101000a900460ff16828054610fb39061268f565b80601f0160208091040260200160405190810160405280929190818152602001828054610fdf9061268f565b801561102c5780601f106110015761010080835404028352916020019161102c565b820191906000526020600020905b81548152906001019060200180831161100f57829003601f168201915b5050505050925081805461103f9061268f565b80601f016020809104026020016040519081016040528092919081815260200182805461106b9061268f565b80156110b85780601f1061108d576101008083540402835291602001916110b8565b820191906000526020600020905b81548152906001019060200180831161109b57829003601f168201915b5050505050915093509350935093509193509193565b60008060009054906101000a900473ffffffffffffffffffffffffffffffffffffffff16905090565b6000600954905090565b6000600260008373ffffffffffffffffffffffffffffffffffffffff1673ffffffffffffffffffffffffffffffffffffffff16815260200190815260200160002060040160009054906101000a900460ff169050919050565b6000606080600060011515600160003373ffffffffffffffffffffffffffffffffffffffff1673ffffffffffffffffffffffffffffffffffffffff16815260200190815260200160002060009054906101000a900460ff161515146111f4576040517f08c379a00000000000000000000000000000000000000000000000000000000081526004016111eb90612b1a565b60405180910390fd5b6000600381111561120857611207612071565b5b600260008773ffffffffffffffffffffffffffffffffffffffff1673ffffffffffffffffffffffffffffffffffffffff16815260200190815260200160002060040160009054906101000a900460ff16600381111561126a57611269612071565b5b036112aa576040517f08c379a00000000000000000000000000000000000000000000000000000000081526004016112a190612bf2565b60405180910390fd5b600260008673ffffffffffffffffffffffffffffffffffffffff1673ffffffffffffffffffffffffffffffffffffffff16815260200190815260200160002060000154600260008773ffffffffffffffffffffffffffffffffffffffff1673ffffffffffffffffffffffffffffffffffffffff168152602001908152602001600020600201600260008873ffffffffffffffffffffffffffffffffffffffff1673ffffffffffffffffffffffffffffffffffffffff168152602001908152602001600020600301600260008973ffffffffffffffffffffffffffffffffffffffff1673ffffffffffffffffffffffffffffffffffffffff16815260200190815260200160002060040160009054906101000a900460ff168280546113cd9061268f565b80601f01602080910402602001604051908101604052809291908181526020018280546113f99061268f565b80156114465780601f1061141b57610100808354040283529160200191611446565b820191906000526020600020905b81548152906001019060200180831161142957829003601f168201915b505050505092508180546114599061268f565b80601f01602080910402602001604051908101604052809291908181526020018280546114859061268f565b80156114d25780601f106114a7576101008083540402835291602001916114d2565b820191906000526020600020905b8154815290600101906020018083116114b557829003601f168201915b5050505050915093509350935093509193509193565b60085481565b6000600381111561150257611501612071565b5b600260003373ffffffffffffffffffffffffffffffffffffffff1673ffffffffffffffffffffffffffffffffffffffff16815260200190815260200160002060040160009054906101000a900460ff16600381111561156457611563612071565b5b146115a4576040517f08c379a000000000000000000000000000000000000000000000000000000000815260040161159b90612c5e565b60405180910390fd5b600860008154809291906115b790612618565b91905055506040518060a0016040528060085481526020013373ffffffffffffffffffffffffffffffffffffffff1681526020018381526020018281526020016001600381111561160b5761160a612071565b5b815250600260003373ffffffffffffffffffffffffffffffffffffffff1673ffffffffffffffffffffffffffffffffffffffff1681526020019081526020016000206000820151816000015560208201518160010160006101000a81548173ffffffffffffffffffffffffffffffffffffffff021916908373ffffffffffffffffffffffffffffffffffffffff16021790555060408201518160020190816116b3919061286c565b5060608201518160030190816116c9919061286c565b5060808201518160040160006101000a81548160ff021916908360038111156116f5576116f4612071565b5b0217905550905050600460085490806001815401808255809150506001900390600052602060002001600090919091909150556006339080600181540180825580915050600190039060005260206000200160009091909190916101000a81548173ffffffffffffffffffffffffffffffffffffffff021916908373ffffffffffffffffffffffffffffffffffffffff1602179055506117953382611c28565b3373ffffffffffffffffffffffffffffffffffffffff166008547f185558c98d385f7f8ad95d297f1518e3d205d4626bd1bc40c08976b76938ace560405160405180910390a35050565b60095481565b3373ffffffffffffffffffffffffffffffffffffffff168173ffffffffffffffffffffffffffffffffffffffff1614611853576040517f08c379a000000000000000000000000000000000000000000000000000000000815260040161184a906129b0565b60405180910390fd5b6001600381111561186757611866612071565b5b600360008373ffffffffffffffffffffffffffffffffffffffff1673ffffffffffffffffffffffffffffffffffffffff16815260200190815260200160002060040160009054906101000a900460ff1660038111156118c9576118c8612071565b5b14611909576040517f08c379a000000000000000000000000000000000000000000000000000000000815260040161190090612cf0565b60405180910390fd5b6000600360008373ffffffffffffffffffffffffffffffffffffffff1673ffffffffffffffffffffffffffffffffffffffff168152602001908152602001600020905060028160040160006101000a81548160ff0219169083600381111561197457611973612071565b5b02179055505050565b60606006805480602002602001604051908101604052809291908181526020018280548015611a0157602002820191906000526020600020905b8160009054906101000a900473ffffffffffffffffffffffffffffffffffffffff1673ffffffffffffffffffffffffffffffffffffffff16815260200190600101908083116119b7575b5050505050905090565b60008054906101000a900473ffffffffffffffffffffffffffffffffffffffff1681565b60058181548110611a3f57600080fd5b906000526020600020016000915090505481565b60005b600680549050811015611c2257600060068281548110611a7957611a78612d10565b5b9060005260206000200160009054906101000a900473ffffffffffffffffffffffffffffffffffffffff1690508373ffffffffffffffffffffffffffffffffffffffff168173ffffffffffffffffffffffffffffffffffffffff1603611adf5750611c0f565b8373ffffffffffffffffffffffffffffffffffffffff168173ffffffffffffffffffffffffffffffffffffffff1614158015611b8e575060016003811115611b2a57611b29612071565b5b600260008373ffffffffffffffffffffffffffffffffffffffff1673ffffffffffffffffffffffffffffffffffffffff16815260200190815260200160002060040160009054906101000a900460ff166003811115611b8c57611b8b612071565b5b145b8015611bf657508280519060200120600260008373ffffffffffffffffffffffffffffffffffffffff1673ffffffffffffffffffffffffffffffffffffffff168152602001908152602001600020600301604051611bec9190612de2565b6040518091039020145b15611c0d57611c06818585611dc5565b5050611c24565b505b8080611c1a90612618565b915050611a56565b505b5050565b60005b600780549050811015611dbf57600060078281548110611c4e57611c4d612d10565b5b9060005260206000200160009054906101000a900473ffffffffffffffffffffffffffffffffffffffff1690508373ffffffffffffffffffffffffffffffffffffffff168173ffffffffffffffffffffffffffffffffffffffff1603611cb45750611dac565b60016003811115611cc857611cc7612071565b5b600360008373ffffffffffffffffffffffffffffffffffffffff1673ffffffffffffffffffffffffffffffffffffffff16815260200190815260200160002060040160009054906101000a900460ff166003811115611d2a57611d29612071565b5b148015611d9357508280519060200120600360008373ffffffffffffffffffffffffffffffffffffffff1673ffffffffffffffffffffffffffffffffffffffff168152602001908152602001600020600301604051611d899190612de2565b6040518091039020145b15611daa57611da3848285611dc5565b5050611dc1565b505b8080611db790612618565b915050611c2b565b505b5050565b6003600260008573ffffffffffffffffffffffffffffffffffffffff1673ffffffffffffffffffffffffffffffffffffffff16815260200190815260200160002060040160006101000a81548160ff02191690836003811115611e2b57611e2a612071565b5b021790555060038060008473ffffffffffffffffffffffffffffffffffffffff1673ffffffffffffffffffffffffffffffffffffffff16815260200190815260200160002060040160006101000a81548160ff02191690836003811115611e9557611e94612071565b5b021790555080604051611ea89190612e35565b60405180910390208273ffffffffffffffffffffffffffffffffffffffff168473ffffffffffffffffffffffffffffffffffffffff167f420115249e73025572bf02e15e1e2503a97f8b49cd3a732fc454dfec85f1e00560405160405180910390a4505050565b6000604051905090565b600080fd5b600080fd5b6000819050919050565b611f3681611f23565b8114611f4157600080fd5b50565b600081359050611f5381611f2d565b92915050565b600060208284031215611f6f57611f6e611f19565b5b6000611f7d84828501611f44565b91505092915050565b611f8f81611f23565b82525050565b6000602082019050611faa6000830184611f86565b92915050565b600073ffffffffffffffffffffffffffffffffffffffff82169050919050565b6000611fdb82611fb0565b9050919050565b611feb81611fd0565b8114611ff657600080fd5b50565b60008135905061200881611fe2565b92915050565b60006020828403121561202457612023611f19565b5b600061203284828501611ff9565b91505092915050565b60008115159050919050565b6120508161203b565b82525050565b600060208201905061206b6000830184612047565b92915050565b7f4e487b7100000000000000000000000000000000000000000000000000000000600052602160045260246000fd5b600481106120b1576120b0612071565b5b50565b60008190506120c2826120a0565b919050565b60006120d2826120b4565b9050919050565b6120e2816120c7565b82525050565b60006020820190506120fd60008301846120d9565b92915050565b600080fd5b600080fd5b6000601f19601f8301169050919050565b7f4e487b7100000000000000000000000000000000000000000000000000000000600052604160045260246000fd5b6121568261210d565b810181811067ffffffffffffffff821117156121755761217461211e565b5b80604052505050565b6000612188611f0f565b9050612194828261214d565b919050565b600067ffffffffffffffff8211156121b4576121b361211e565b5b6121bd8261210d565b9050602081019050919050565b82818337600083830152505050565b60006121ec6121e784612199565b61217e565b90508281526020810184848401111561220857612207612108565b5b6122138482856121ca565b509392505050565b600082601f8301126122305761222f612103565b5b81356122408482602086016121d9565b91505092915050565b600080604083850312156122605761225f611f19565b5b600083013567ffffffffffffffff81111561227e5761227d611f1e565b5b61228a8582860161221b565b925050602083013567ffffffffffffffff8111156122ab576122aa611f1e565b5b6122b78582860161221b565b9150509250929050565b6122ca81611fd0565b82525050565b60006020820190506122e560008301846122c1565b92915050565b600081519050919050565b600082825260208201905092915050565b6000819050602082019050919050565b61232081611fd0565b82525050565b60006123328383612317565b60208301905092915050565b6000602082019050919050565b6000612356826122eb565b61236081856122f6565b935061236b83612307565b8060005b8381101561239c5781516123838882612326565b975061238e8361233e565b92505060018101905061236f565b5085935050505092915050565b600060208201905081810360008301526123c3818461234b565b905092915050565b600081519050919050565b600082825260208201905092915050565b6000819050602082019050919050565b61240081611f23565b82525050565b600061241283836123f7565b60208301905092915050565b6000602082019050919050565b6000612436826123cb565b61244081856123d6565b935061244b836123e7565b8060005b8381101561247c5781516124638882612406565b975061246e8361241e565b92505060018101905061244f565b5085935050505092915050565b600060208201905081810360008301526124a3818461242b565b905092915050565b600081519050919050565b600082825260208201905092915050565b60005b838110156124e55780820151818401526020810190506124ca565b60008484015250505050565b60006124fc826124ab565b61250681856124b6565b93506125168185602086016124c7565b61251f8161210d565b840191505092915050565b600060808201905061253f6000830187611f86565b818103602083015261255181866124f1565b9050818103604083015261256581856124f1565b905061257460608301846120d9565b95945050505050565b7f526563697069656e743a20616c72656164792072656769737465726564000000600082015250565b60006125b3601d836124b6565b91506125be8261257d565b602082019050919050565b600060208201905081810360008301526125e2816125a6565b9050919050565b7f4e487b7100000000000000000000000000000000000000000000000000000000600052601160045260246000fd5b600061262382611f23565b91507fffffffffffffffffffffffffffffffffffffffffffffffffffffffffffffffff8203612655576126546125e9565b5b600182019050919050565b7f4e487b7100000000000000000000000000000000000000000000000000000000600052602260045260246000fd5b600060028204905060018216806126a757607f821691505b6020821081036126ba576126b9612660565b5b50919050565b60008190508160005260206000209050919050565b60006020601f8301049050919050565b600082821b905092915050565b6000600883026127227fffffffffffffffffffffffffffffffffffffffffffffffffffffffffffffffff826126e5565b61272c86836126e5565b95508019841693508086168417925050509392505050565b6000819050919050565b600061276961276461275f84611f23565b612744565b611f23565b9050919050565b6000819050919050565b6127838361274e565b61279761278f82612770565b8484546126f2565b825550505050565b600090565b6127ac61279f565b6127b781848461277a565b505050565b5b818110156127db576127d06000826127a4565b6001810190506127bd565b5050565b601f821115612820576127f1816126c0565b6127fa846126d5565b81016020851015612809578190505b61281d612815856126d5565b8301826127bc565b50505b505050565b600082821c905092915050565b600061284360001984600802612825565b1980831691505092915050565b600061285c8383612832565b9150826002028217905092915050565b612875826124ab565b67ffffffffffffffff81111561288e5761288d61211e565b5b612898825461268f565b6128a38282856127df565b600060209050601f8311600181146128d657600084156128c4578287015190505b6128ce8582612850565b865550612936565b601f1984166128e4866126c0565b60005b8281101561290c578489015182556001820191506020850194506020810190506128e7565b868310156129295784890151612925601f891682612832565b8355505b6001600288020188555050505b505050505050565b7f63616e206e6f7420646572656769737465722066726f6d20616e6f746865722060008201527f6164647265737300000000000000000000000000000000000000000000000000602082015250565b600061299a6027836124b6565b91506129a58261293e565b604082019050919050565b600060208201905081810360008301526129c98161298d565b9050919050565b7f446f6e6f723a2063616e27742062652064656c657465642c206e6f742072656760008201527f697374657264206f7220616c7265616479206d61746368656400000000000000602082015250565b6000612a2c6039836124b6565b9150612a37826129d0565b604082019050919050565b60006020820190508181036000830152612a5b81612a1f565b9050919050565b7f4f6e6c79206f776e65722063616e2063616c6c00000000000000000000000000600082015250565b6000612a986013836124b6565b9150612aa382612a62565b602082019050919050565b60006020820190508181036000830152612ac781612a8b565b9050919050565b7f4f6e6c792061646d696e2063616e2063616c6c00000000000000000000000000600082015250565b6000612b046013836124b6565b9150612b0f82612ace565b602082019050919050565b60006020820190508181036000830152612b3381612af7565b9050919050565b7f526563697069656e743a206e6f74207265676973746572656400000000000000600082015250565b6000612b706019836124b6565b9150612b7b82612b3a565b602082019050919050565b60006020820190508181036000830152612b9f81612b63565b9050919050565b7f446f6e6f723a206e6f7420726567697374657265640000000000000000000000600082015250565b6000612bdc6015836124b6565b9150612be782612ba6565b602082019050919050565b60006020820190508181036000830152612c0b81612bcf565b9050919050565b7f446f6e6f723a20616c7265616479207265676973746572656400000000000000600082015250565b6000612c486019836124b6565b9150612c5382612c12565b602082019050919050565b60006020820190508181036000830152612c7781612c3b565b9050919050565b7f526563697069656e743a2063616e27742062652064656c657465642c206e6f7460008201527f20726567697374657264206f7220616c7265616479206d617463686564000000602082015250565b6000612cda603d836124b6565b9150612ce582612c7e565b604082019050919050565b60006020820190508181036000830152612d0981612ccd565b9050919050565b7f4e487b7100000000000000000000000000000000000000000000000000000000600052603260045260246000fd5b600081905092915050565b60008190508160005260206000209050919050565b60008154612d6c8161268f565b612d768186612d3f565b94506001821660008114612d915760018114612da657612dd9565b60ff1983168652811515820286019350612dd9565b612daf85612d4a565b60005b83811015612dd157815481890152600182019150602081019050612db2565b838801955050505b50505092915050565b6000612dee8284612d5f565b915081905092915050565b600081905092915050565b6000612e0f826124ab565b612e198185612df9565b9350612e298185602086016124c7565b80840191505092915050565b6000612e418284612e04565b91508190509291505056fea2646970667358221220778b4c6afe00c79a461c9962ee2da0c8fd07e0ade78e636699563afbee4f4fd664736f6c63430008120033",
  "linkReferences": {},
  "deployedLinkReferences": {}
}